{
  "_format": "hh-sol-artifact-1",
  "contractName": "CrowdTank",
  "sourceName": "contracts/CrowdTank.sol",
  "abi": [
    {
      "inputs": [],
      "stateMutability": "nonpayable",
      "type": "constructor"
    },
    {
      "anonymous": false,
      "inputs": [
        {
          "indexed": true,
          "internalType": "uint256",
          "name": "projectId",
          "type": "uint256"
        },
        {
          "indexed": true,
          "internalType": "address",
          "name": "withdrawer",
          "type": "address"
        },
        {
          "indexed": false,
          "internalType": "uint256",
          "name": "amount",
          "type": "uint256"
        },
        {
          "indexed": false,
          "internalType": "string",
          "name": "withdrawerType",
          "type": "string"
        }
      ],
      "name": "FundsWithdrawn",
      "type": "event"
    },
    {
      "anonymous": false,
      "inputs": [
        {
          "indexed": true,
          "internalType": "uint256",
          "name": "projectId",
          "type": "uint256"
        },
        {
          "indexed": true,
          "internalType": "address",
          "name": "creator",
          "type": "address"
        },
        {
          "indexed": false,
          "internalType": "string",
          "name": "name",
          "type": "string"
        },
        {
          "indexed": false,
          "internalType": "string",
          "name": "description",
          "type": "string"
        },
        {
          "indexed": false,
          "internalType": "uint256",
          "name": "fundingGoal",
          "type": "uint256"
        },
        {
          "indexed": false,
          "internalType": "uint256",
          "name": "deadline",
          "type": "uint256"
        }
      ],
      "name": "ProjectCreated",
      "type": "event"
    },
    {
      "anonymous": false,
      "inputs": [
        {
          "indexed": true,
          "internalType": "uint256",
          "name": "projectId",
          "type": "uint256"
        },
        {
          "indexed": true,
          "internalType": "address",
          "name": "contributor",
          "type": "address"
        },
        {
          "indexed": false,
          "internalType": "uint256",
          "name": "amount",
          "type": "uint256"
        }
      ],
      "name": "ProjectFunded",
      "type": "event"
    },
    {
      "inputs": [
        {
          "internalType": "uint256",
          "name": "_projectId",
          "type": "uint256"
        }
      ],
      "name": "adminWithdrawFunds",
      "outputs": [],
      "stateMutability": "payable",
      "type": "function"
    },
    {
      "inputs": [],
      "name": "chargeCommission",
      "outputs": [],
      "stateMutability": "payable",
      "type": "function"
    },
    {
      "inputs": [],
      "name": "commissionCollected",
      "outputs": [
        {
          "internalType": "uint256",
          "name": "",
          "type": "uint256"
        }
      ],
      "stateMutability": "view",
      "type": "function"
    },
    {
      "inputs": [
        {
          "internalType": "uint256",
          "name": "",
          "type": "uint256"
        },
        {
          "internalType": "address",
          "name": "",
          "type": "address"
        }
      ],
      "name": "contributions",
      "outputs": [
        {
          "internalType": "uint256",
          "name": "",
          "type": "uint256"
        }
      ],
      "stateMutability": "view",
      "type": "function"
    },
    {
      "inputs": [
        {
          "internalType": "string",
          "name": "_name",
          "type": "string"
        },
        {
          "internalType": "string",
          "name": "_description",
          "type": "string"
        },
        {
          "internalType": "uint256",
          "name": "_fundingGoal",
          "type": "uint256"
        },
        {
          "internalType": "uint256",
          "name": "_durationSeconds",
          "type": "uint256"
        },
        {
          "internalType": "uint256",
          "name": "_id",
          "type": "uint256"
        }
      ],
      "name": "createProject",
      "outputs": [],
      "stateMutability": "nonpayable",
      "type": "function"
    },
    {
      "inputs": [
        {
          "internalType": "uint256",
          "name": "_projectId",
          "type": "uint256"
        },
        {
          "internalType": "uint256",
          "name": "_additionalSeconds",
          "type": "uint256"
        }
      ],
      "name": "enhanceDeadline",
      "outputs": [],
      "stateMutability": "nonpayable",
      "type": "function"
    },
    {
      "inputs": [
        {
          "internalType": "uint256",
          "name": "_projectId",
          "type": "uint256"
        }
      ],
      "name": "fundProject",
      "outputs": [],
      "stateMutability": "payable",
      "type": "function"
    },
    {
      "inputs": [],
      "name": "getFailedProjects",
      "outputs": [
        {
          "internalType": "uint256",
          "name": "",
          "type": "uint256"
        }
      ],
      "stateMutability": "view",
      "type": "function"
    },
    {
      "inputs": [
        {
          "internalType": "uint256",
          "name": "_projectId",
          "type": "uint256"
        }
      ],
      "name": "getRemainingTime",
      "outputs": [
        {
          "internalType": "uint256",
          "name": "",
          "type": "uint256"
        }
      ],
      "stateMutability": "view",
      "type": "function"
    },
    {
      "inputs": [],
      "name": "getSuccessfulProjects",
      "outputs": [
        {
          "internalType": "uint256",
          "name": "",
          "type": "uint256"
        }
      ],
      "stateMutability": "view",
      "type": "function"
    },
    {
      "inputs": [
        {
          "internalType": "uint256",
          "name": "",
          "type": "uint256"
        }
      ],
      "name": "isIdUsed",
      "outputs": [
        {
          "internalType": "bool",
          "name": "",
          "type": "bool"
        }
      ],
      "stateMutability": "view",
      "type": "function"
    },
    {
      "inputs": [],
      "name": "owner",
      "outputs": [
        {
          "internalType": "address",
          "name": "",
          "type": "address"
        }
      ],
      "stateMutability": "view",
      "type": "function"
    },
    {
      "inputs": [
        {
          "internalType": "uint256",
          "name": "",
          "type": "uint256"
        }
      ],
      "name": "projects",
      "outputs": [
        {
          "internalType": "address",
          "name": "creator",
          "type": "address"
        },
        {
          "internalType": "string",
          "name": "name",
          "type": "string"
        },
        {
          "internalType": "string",
          "name": "description",
          "type": "string"
        },
        {
          "internalType": "uint256",
          "name": "fundingGoal",
          "type": "uint256"
        },
        {
          "internalType": "uint256",
          "name": "deadline",
          "type": "uint256"
        },
        {
          "internalType": "uint256",
          "name": "amountRaised",
          "type": "uint256"
        },
        {
          "internalType": "bool",
          "name": "funded",
          "type": "bool"
        }
      ],
      "stateMutability": "view",
      "type": "function"
    },
    {
      "inputs": [],
      "name": "systemCommission",
      "outputs": [
        {
          "internalType": "uint256",
          "name": "",
          "type": "uint256"
        }
      ],
      "stateMutability": "view",
      "type": "function"
    },
    {
      "inputs": [],
      "name": "totalFundedProjects",
      "outputs": [
        {
          "internalType": "uint256",
          "name": "",
          "type": "uint256"
        }
      ],
      "stateMutability": "view",
      "type": "function"
    },
    {
      "inputs": [],
      "name": "totalProjects",
      "outputs": [
        {
          "internalType": "uint256",
          "name": "",
          "type": "uint256"
        }
      ],
      "stateMutability": "view",
      "type": "function"
    },
    {
      "inputs": [
        {
          "internalType": "uint256",
          "name": "_projectId",
          "type": "uint256"
        }
      ],
      "name": "userWithdrawFinds",
      "outputs": [],
      "stateMutability": "payable",
      "type": "function"
    },
    {
      "inputs": [],
      "name": "withdrawCommission",
      "outputs": [],
      "stateMutability": "nonpayable",
      "type": "function"
    }
  ],
  "bytecode": "0x608060405234801561001057600080fd5b50336000806101000a81548173ffffffffffffffffffffffffffffffffffffffff021916908373ffffffffffffffffffffffffffffffffffffffff160217905550611d0e806100606000396000f3fe6080604052600436106101095760003560e01c80636c563abe116100955780638da5cb5b116100645780638da5cb5b146103365780639c361e4e14610361578063b1357b681461038c578063c49f597b146103a8578063f81bf601146103d357610109565b80636c563abe146102aa5780637b12376e146102c65780637cc21e0a14610303578063895d6d451461032c57610109565b80632a661dac116100dc5780632a661dac146101e45780633d891f591461020f5780633e25e8371461024c5780634cad730c146102635780635b0e22dd1461027f57610109565b80630bdc87121461010e578063107046bd146101395780631124acf41461017c578063181e0124146101a7575b600080fd5b34801561011a57600080fd5b506101236103fc565b604051610130919061164e565b60405180910390f35b34801561014557600080fd5b50610160600480360381019061015b91906111a0565b610406565b6040516101739796959493929190611443565b60405180910390f35b34801561018857600080fd5b50610191610585565b60405161019e919061164e565b60405180910390f35b3480156101b357600080fd5b506101ce60048036038101906101c991906111a0565b61058f565b6040516101db919061164e565b60405180910390f35b3480156101f057600080fd5b506101f96105e2565b604051610206919061164e565b60405180910390f35b34801561021b57600080fd5b50610236600480360381019061023191906111c9565b6105f9565b604051610243919061164e565b60405180910390f35b34801561025857600080fd5b5061026161061e565b005b61027d600480360381019061027891906111a0565b6106ff565b005b34801561028b57600080fd5b50610294610868565b6040516102a1919061164e565b60405180910390f35b6102c460048036038101906102bf91906111a0565b61086e565b005b3480156102d257600080fd5b506102ed60048036038101906102e891906111a0565b610ab1565b6040516102fa91906114c0565b60405180910390f35b34801561030f57600080fd5b5061032a60048036038101906103259190611205565b610ad1565b005b610334610b02565b005b34801561034257600080fd5b5061034b610b78565b6040516103589190611428565b60405180910390f35b34801561036d57600080fd5b50610376610b9c565b604051610383919061164e565b60405180910390f35b6103a660048036038101906103a191906111a0565b610ba2565b005b3480156103b457600080fd5b506103bd610d85565b6040516103ca919061164e565b60405180910390f35b3480156103df57600080fd5b506103fa60048036038101906103f591906110f9565b610d8b565b005b6000600654905090565b60016020528060005260406000206000915090508060000160009054906101000a900473ffffffffffffffffffffffffffffffffffffffff169080600101805461044f906118d6565b80601f016020809104026020016040519081016040528092919081815260200182805461047b906118d6565b80156104c85780601f1061049d576101008083540402835291602001916104c8565b820191906000526020600020905b8154815290600101906020018083116104ab57829003601f168201915b5050505050908060020180546104dd906118d6565b80601f0160208091040260200160405190810160405280929190818152602001828054610509906118d6565b80156105565780601f1061052b57610100808354040283529160200191610556565b820191906000526020600020905b81548152906001019060200180831161053957829003601f168201915b5050505050908060030154908060040154908060050154908060060160009054906101000a900460ff16905087565b6000600554905090565b600060016000838152602001908152602001600020600401544211156105b857600090506105dd565b4260016000848152602001908152602001600020600401546105da9190611818565b90505b919050565b60006005546004546105f49190611818565b905090565b6002602052816000526040600020602052806000526040600020600091509150505481565b60008054906101000a900473ffffffffffffffffffffffffffffffffffffffff1673ffffffffffffffffffffffffffffffffffffffff163373ffffffffffffffffffffffffffffffffffffffff16146106ac576040517f08c379a00000000000000000000000000000000000000000000000000000000081526004016106a39061158e565b60405180910390fd5b3373ffffffffffffffffffffffffffffffffffffffff166108fc6006549081150290604051600060405180830381858888f193505050501580156106f4573d6000803e3d6000fd5b506000600681905550565b60006001600083815260200190815260200160002090508060060160009054906101000a900460ff16158015610739575042816004015411155b610778576040517f08c379a000000000000000000000000000000000000000000000000000000000815260040161076f9061154e565b60405180910390fd5b60006002600084815260200190815260200160002060003373ffffffffffffffffffffffffffffffffffffffff1673ffffffffffffffffffffffffffffffffffffffff1681526020019081526020016000205490503373ffffffffffffffffffffffffffffffffffffffff166108fc829081150290604051600060405180830381858888f19350505050158015610813573d6000803e3d6000fd5b503373ffffffffffffffffffffffffffffffffffffffff16837fb75d00e1d92f7c53294cdc188f9f767b52a51b39c0d8ab432ed851cd1973229e8360405161085b9190611669565b60405180910390a3505050565b60055481565b600060016000838152602001908152602001600020905080600401544211156108cc576040517f08c379a00000000000000000000000000000000000000000000000000000000081526004016108c3906115ce565b60405180910390fd5b8060060160009054906101000a900460ff161561091e576040517f08c379a00000000000000000000000000000000000000000000000000000000081526004016109159061162e565b60405180910390fd5b60003411610961576040517f08c379a0000000000000000000000000000000000000000000000000000000008152600401610958906115ae565b60405180910390fd5b6000606460053461097291906117be565b61097c919061178d565b905080600660008282546109909190611737565b92505081905550600081346109a59190611818565b9050808360050160008282546109bb9190611737565b92505081905550806002600086815260200190815260200160002060003373ffffffffffffffffffffffffffffffffffffffff1673ffffffffffffffffffffffffffffffffffffffff168152602001908152602001600020819055503373ffffffffffffffffffffffffffffffffffffffff16847f6251418ffd7f504740544ec3d578897633e212c5d658b7dce793c5dc9d2e855e83604051610a5e919061164e565b60405180910390a38260030154836005015410610aab5760018360060160006101000a81548160ff02191690831515021790555060056000815480929190610aa590611939565b91905055505b50505050565b60036020528060005260406000206000915054906101000a900460ff1681565b80600160008481526020019081526020016000206004016000828254610af79190611737565b925050819055505050565b60003411610b45576040517f08c379a0000000000000000000000000000000000000000000000000000000008152600401610b3c906115ae565b60405180910390fd5b6064600534610b5491906117be565b610b5e919061178d565b60066000828254610b6f9190611737565b92505081905550565b60008054906101000a900473ffffffffffffffffffffffffffffffffffffffff1681565b60045481565b60006001600083815260200190815260200160002090508060060160009054906101000a900460ff16610c0a576040517f08c379a0000000000000000000000000000000000000000000000000000000008152600401610c019061156e565b60405180910390fd5b3373ffffffffffffffffffffffffffffffffffffffff168160000160009054906101000a900473ffffffffffffffffffffffffffffffffffffffff1673ffffffffffffffffffffffffffffffffffffffff1614610c9c576040517f08c379a0000000000000000000000000000000000000000000000000000000008152600401610c939061160e565b60405180910390fd5b4281600401541115610ce3576040517f08c379a0000000000000000000000000000000000000000000000000000000008152600401610cda906115ee565b60405180910390fd5b3373ffffffffffffffffffffffffffffffffffffffff166108fc82600501549081150290604051600060405180830381858888f19350505050158015610d2d573d6000803e3d6000fd5b503373ffffffffffffffffffffffffffffffffffffffff16827fb75d00e1d92f7c53294cdc188f9f767b52a51b39c0d8ab432ed851cd1973229e8360050154604051610d799190611697565b60405180910390a35050565b60065481565b6003600082815260200190815260200160002060009054906101000a900460ff1615610dec576040517f08c379a0000000000000000000000000000000000000000000000000000000008152600401610de39061152e565b60405180910390fd5b60016003600083815260200190815260200160002060006101000a81548160ff0219169083151502179055506040518060e001604052803373ffffffffffffffffffffffffffffffffffffffff1681526020018681526020018581526020018481526020018342610e5d9190611737565b815260200160008152602001600015158152506001600083815260200190815260200160002060008201518160000160006101000a81548173ffffffffffffffffffffffffffffffffffffffff021916908373ffffffffffffffffffffffffffffffffffffffff1602179055506020820151816001019080519060200190610ee6929190610fc4565b506040820151816002019080519060200190610f03929190610fc4565b50606082015181600301556080820151816004015560a0820151816005015560c08201518160060160006101000a81548160ff0219169083151502179055509050503373ffffffffffffffffffffffffffffffffffffffff16817fac9b83534845c9e785a6ea70f2d809db1d72ef9a1d981753712d922f5cb55f398787878742610f8d9190611737565b604051610f9d94939291906114db565b60405180910390a360046000815480929190610fb890611939565b91905055505050505050565b828054610fd0906118d6565b90600052602060002090601f016020900481019282610ff25760008555611039565b82601f1061100b57805160ff1916838001178555611039565b82800160010185558215611039579182015b8281111561103857825182559160200191906001019061101d565b5b509050611046919061104a565b5090565b5b8082111561106357600081600090555060010161104b565b5090565b600061107a611075846116ea565b6116c5565b90508281526020810184848401111561109257600080fd5b61109d848285611894565b509392505050565b6000813590506110b481611caa565b92915050565b600082601f8301126110cb57600080fd5b81356110db848260208601611067565b91505092915050565b6000813590506110f381611cc1565b92915050565b600080600080600060a0868803121561111157600080fd5b600086013567ffffffffffffffff81111561112b57600080fd5b611137888289016110ba565b955050602086013567ffffffffffffffff81111561115457600080fd5b611160888289016110ba565b9450506040611171888289016110e4565b9350506060611182888289016110e4565b9250506080611193888289016110e4565b9150509295509295909350565b6000602082840312156111b257600080fd5b60006111c0848285016110e4565b91505092915050565b600080604083850312156111dc57600080fd5b60006111ea858286016110e4565b92505060206111fb858286016110a5565b9150509250929050565b6000806040838503121561121857600080fd5b6000611226858286016110e4565b9250506020611237858286016110e4565b9150509250929050565b61124a8161184c565b82525050565b6112598161185e565b82525050565b600061126a8261171b565b6112748185611726565b93506112848185602086016118a3565b61128d81611a3e565b840191505092915050565b60006112a5601a83611726565b91506112b082611a4f565b602082019050919050565b60006112c8602e83611726565b91506112d382611a78565b604082019050919050565b60006112eb601983611726565b91506112f682611ac7565b602082019050919050565b600061130e602283611726565b915061131982611af0565b604082019050919050565b6000611331601d83611726565b915061133c82611b3f565b602082019050919050565b6000611354602283611726565b915061135f82611b68565b604082019050919050565b6000611377602383611726565b915061138282611bb7565b604082019050919050565b600061139a600483611726565b91506113a582611c06565b602082019050919050565b60006113bd601f83611726565b91506113c882611c2f565b602082019050919050565b60006113e0601983611726565b91506113eb82611c58565b602082019050919050565b6000611403600583611726565b915061140e82611c81565b602082019050919050565b6114228161188a565b82525050565b600060208201905061143d6000830184611241565b92915050565b600060e082019050611458600083018a611241565b818103602083015261146a818961125f565b9050818103604083015261147e818861125f565b905061148d6060830187611419565b61149a6080830186611419565b6114a760a0830185611419565b6114b460c0830184611250565b98975050505050505050565b60006020820190506114d56000830184611250565b92915050565b600060808201905081810360008301526114f5818761125f565b90508181036020830152611509818661125f565b90506115186040830185611419565b6115256060830184611419565b95945050505050565b6000602082019050818103600083015261154781611298565b9050919050565b60006020820190508181036000830152611567816112bb565b9050919050565b60006020820190508181036000830152611587816112de565b9050919050565b600060208201905081810360008301526115a781611301565b9050919050565b600060208201905081810360008301526115c781611324565b9050919050565b600060208201905081810360008301526115e781611347565b9050919050565b600060208201905081810360008301526116078161136a565b9050919050565b60006020820190508181036000830152611627816113b0565b9050919050565b60006020820190508181036000830152611647816113d3565b9050919050565b60006020820190506116636000830184611419565b92915050565b600060408201905061167e6000830184611419565b818103602083015261168f8161138d565b905092915050565b60006040820190506116ac6000830184611419565b81810360208301526116bd816113f6565b905092915050565b60006116cf6116e0565b90506116db8282611908565b919050565b6000604051905090565b600067ffffffffffffffff82111561170557611704611a0f565b5b61170e82611a3e565b9050602081019050919050565b600081519050919050565b600082825260208201905092915050565b60006117428261188a565b915061174d8361188a565b9250827fffffffffffffffffffffffffffffffffffffffffffffffffffffffffffffffff0382111561178257611781611982565b5b828201905092915050565b60006117988261188a565b91506117a38361188a565b9250826117b3576117b26119b1565b5b828204905092915050565b60006117c98261188a565b91506117d48361188a565b9250817fffffffffffffffffffffffffffffffffffffffffffffffffffffffffffffffff048311821515161561180d5761180c611982565b5b828202905092915050565b60006118238261188a565b915061182e8361188a565b92508282101561184157611840611982565b5b828203905092915050565b60006118578261186a565b9050919050565b60008115159050919050565b600073ffffffffffffffffffffffffffffffffffffffff82169050919050565b6000819050919050565b82818337600083830152505050565b60005b838110156118c15780820151818401526020810190506118a6565b838111156118d0576000848401525b50505050565b600060028204905060018216806118ee57607f821691505b60208210811415611902576119016119e0565b5b50919050565b61191182611a3e565b810181811067ffffffffffffffff821117156119305761192f611a0f565b5b80604052505050565b60006119448261188a565b91507fffffffffffffffffffffffffffffffffffffffffffffffffffffffffffffffff82141561197757611976611982565b5b600182019050919050565b7f4e487b7100000000000000000000000000000000000000000000000000000000600052601160045260246000fd5b7f4e487b7100000000000000000000000000000000000000000000000000000000600052601260045260246000fd5b7f4e487b7100000000000000000000000000000000000000000000000000000000600052602260045260246000fd5b7f4e487b7100000000000000000000000000000000000000000000000000000000600052604160045260246000fd5b6000601f19601f8301169050919050565b7f50726f6a65637420496420697320616c72656164792075736564000000000000600082015250565b7f46756e64696e6720676f616c2069732072656163686564206f7220646561646c60008201527f696e65206e6f7420706173736564000000000000000000000000000000000000602082015250565b7f50726f6a656374206973206e6f742066756e6465642079657400000000000000600082015250565b7f4f6e6c79206f776e65722063616e20776974686472617720636f6d6d6973736960008201527f6f6e000000000000000000000000000000000000000000000000000000000000602082015250565b7f4d7573742073656e6420736f6d652076616c7565206f66206574686572000000600082015250565b7f50726f6a65637420646561646c696e6520697320616c7265616479207061737360008201527f6564000000000000000000000000000000000000000000000000000000000000602082015250565b7f446561646c696e6520666f722070726f6a656374206973206e6f74207265616360008201527f6865640000000000000000000000000000000000000000000000000000000000602082015250565b7f7573657200000000000000000000000000000000000000000000000000000000600082015250565b7f4f6e6c792070726f6a6563742061646d696e2063616e20776974686472617700600082015250565b7f50726f6a65637420697320616c72656164792066756e64656400000000000000600082015250565b7f61646d696e000000000000000000000000000000000000000000000000000000600082015250565b611cb38161184c565b8114611cbe57600080fd5b50565b611cca8161188a565b8114611cd557600080fd5b5056fea264697066735822122003f78a1acabea0b57bf029f71ee0f7b9c245ec9e3b1e9ceb9996ba101c742c2e64736f6c63430008040033",
  "linkReferences": {},
  "deployedLinkReferences": {}
}