{
  "_format": "hh-sol-artifact-1",
  "contractName": "Greeter",
  "sourceName": "contracts/Greeter.sol",
  "abi": [
    {
      "inputs": [],
      "stateMutability": "nonpayable",
      "type": "constructor"
    },
    {
      "inputs": [
        {
          "internalType": "uint256",
          "name": "_deadline",
          "type": "uint256"
        },
        {
          "internalType": "uint256",
          "name": "_id",
          "type": "uint256"
        },
        {
          "internalType": "string",
          "name": "_name",
          "type": "string"
        }
      ],
      "name": "createProject",
      "outputs": [],
      "stateMutability": "nonpayable",
      "type": "function"
    },
    {
      "inputs": [
        {
          "internalType": "uint256",
          "name": "_projectId",
          "type": "uint256"
        },
        {
          "internalType": "uint256",
          "name": "_additionalSeconds",
          "type": "uint256"
        }
      ],
      "name": "enhanceDeadline",
      "outputs": [],
      "stateMutability": "nonpayable",
      "type": "function"
    },
    {
      "inputs": [
        {
          "internalType": "uint256",
          "name": "_projectId",
          "type": "uint256"
        }
      ],
      "name": "fundProject",
      "outputs": [],
      "stateMutability": "payable",
      "type": "function"
    },
    {
      "inputs": [],
      "name": "getFailedProjects",
      "outputs": [
        {
          "internalType": "uint256",
          "name": "",
          "type": "uint256"
        }
      ],
      "stateMutability": "view",
      "type": "function"
    },
    {
      "inputs": [
        {
          "internalType": "uint256",
          "name": "_projectId",
          "type": "uint256"
        }
      ],
      "name": "getRemainingTime",
      "outputs": [
        {
          "internalType": "uint256",
          "name": "",
          "type": "uint256"
        }
      ],
      "stateMutability": "view",
      "type": "function"
    },
    {
      "inputs": [],
      "name": "getSuccessfulProjects",
      "outputs": [
        {
          "internalType": "uint256",
          "name": "",
          "type": "uint256"
        }
      ],
      "stateMutability": "view",
      "type": "function"
    },
    {
      "inputs": [
        {
          "internalType": "uint256",
          "name": "",
          "type": "uint256"
        }
      ],
      "name": "projects",
      "outputs": [
        {
          "internalType": "string",
          "name": "name",
          "type": "string"
        },
        {
          "internalType": "uint256",
          "name": "deadline",
          "type": "uint256"
        },
        {
          "internalType": "uint256",
          "name": "amountRaised",
          "type": "uint256"
        },
        {
          "internalType": "bool",
          "name": "funded",
          "type": "bool"
        }
      ],
      "stateMutability": "view",
      "type": "function"
    },
    {
      "inputs": [],
      "name": "systemCommission",
      "outputs": [
        {
          "internalType": "uint256",
          "name": "",
          "type": "uint256"
        }
      ],
      "stateMutability": "view",
      "type": "function"
    },
    {
      "inputs": [],
      "name": "totalFailedProjects",
      "outputs": [
        {
          "internalType": "uint256",
          "name": "",
          "type": "uint256"
        }
      ],
      "stateMutability": "view",
      "type": "function"
    },
    {
      "inputs": [],
      "name": "totalFundedProjects",
      "outputs": [
        {
          "internalType": "uint256",
          "name": "",
          "type": "uint256"
        }
      ],
      "stateMutability": "view",
      "type": "function"
    },
    {
      "inputs": [],
      "name": "totalProjects",
      "outputs": [
        {
          "internalType": "uint256",
          "name": "",
          "type": "uint256"
        }
      ],
      "stateMutability": "view",
      "type": "function"
    },
    {
      "inputs": [],
      "name": "withdrawCommission",
      "outputs": [],
      "stateMutability": "nonpayable",
      "type": "function"
    }
  ],
  "bytecode": "0x608060405234801561001057600080fd5b506000600181905550600060028190555060006003819055506000600481905550610f44806100406000396000f3fe6080604052600436106100a75760003560e01c80635b0e22dd116100645780635b0e22dd146101bf5780636c563abe146101ea5780637cc21e0a146102065780639c361e4e1461022f578063c49f597b1461025a578063f1d5597c14610285576100a7565b8063107046bd146100ac5780631124acf4146100ec578063181e01241461011757806320f7a505146101545780632a661dac1461017d5780633e25e837146101a8575b600080fd5b3480156100b857600080fd5b506100d360048036038101906100ce919061083f565b6102b0565b6040516100e394939291906109ee565b60405180910390f35b3480156100f857600080fd5b50610101610375565b60405161010e9190610aba565b60405180910390f35b34801561012357600080fd5b5061013e6004803603810190610139919061083f565b61037f565b60405161014b9190610aba565b60405180910390f35b34801561016057600080fd5b5061017b600480360381019061017691906108a4565b6103d0565b005b34801561018957600080fd5b506101926104ba565b60405161019f9190610aba565b60405180910390f35b3480156101b457600080fd5b506101bd6104c4565b005b3480156101cb57600080fd5b506101d46104c6565b6040516101e19190610aba565b60405180910390f35b61020460048036038101906101ff919061083f565b6104cc565b005b34801561021257600080fd5b5061022d60048036038101906102289190610868565b610690565b005b34801561023b57600080fd5b5061024461070d565b6040516102519190610aba565b60405180910390f35b34801561026657600080fd5b5061026f610713565b60405161027c9190610aba565b60405180910390f35b34801561029157600080fd5b5061029a610719565b6040516102a79190610aba565b60405180910390f35b60006020528060005260406000206000915090508060000180546102d390610cb4565b80601f01602080910402602001604051908101604052809291908181526020018280546102ff90610cb4565b801561034c5780601f106103215761010080835404028352916020019161034c565b820191906000526020600020905b81548152906001019060200180831161032f57829003601f168201915b5050505050908060010154908060020154908060030160009054906101000a900460ff16905084565b6000600254905090565b6000806000838152602001908152602001600020600101544211156103a757600090506103cb565b42600080848152602001908152602001600020600101546103c89190610c28565b90505b919050565b428311610412576040517f08c379a000000000000000000000000000000000000000000000000000000000815260040161040990610a7a565b60405180910390fd5b60405180608001604052808281526020018481526020016000815260200160001515815250600080848152602001908152602001600020600082015181600001908051906020019061046592919061071f565b50602082015181600101556040820151816002015560608201518160030160006101000a81548160ff021916908315150217905550905050600160008154809291906104b090610d17565b9190505550505050565b6000600354905090565b565b60025481565b600080600083815260200190815260200160002090508060010154421115610529576040517f08c379a000000000000000000000000000000000000000000000000000000000815260040161052090610a5a565b60405180910390fd5b8060030160009054906101000a900460ff161561057b576040517f08c379a000000000000000000000000000000000000000000000000000000000815260040161057290610a9a565b60405180910390fd5b600034116105be576040517f08c379a00000000000000000000000000000000000000000000000000000000081526004016105b590610a3a565b60405180910390fd5b600060646005346105cf9190610bce565b6105d99190610b9d565b905080600460008282546105ed9190610b47565b92505081905550600081346106029190610c28565b9050808360020160008282546106189190610b47565b9250508190555060648360020154106106655760018360030160006101000a81548160ff0219169083151502179055506002600081548092919061065b90610d17565b919050555061068a565b82600101544210610689576003600081548092919061068390610d17565b91905055505b5b50505050565b6000806000848152602001908152602001600020905080600101544211156106ed576040517f08c379a00000000000000000000000000000000000000000000000000000000081526004016106e490610a5a565b60405180910390fd5b818160010160008282546107019190610b47565b92505081905550505050565b60015481565b60045481565b60035481565b82805461072b90610cb4565b90600052602060002090601f01602090048101928261074d5760008555610794565b82601f1061076657805160ff1916838001178555610794565b82800160010185558215610794579182015b82811115610793578251825591602001919060010190610778565b5b5090506107a191906107a5565b5090565b5b808211156107be5760008160009055506001016107a6565b5090565b60006107d56107d084610afa565b610ad5565b9050828152602081018484840111156107ed57600080fd5b6107f8848285610c72565b509392505050565b600082601f83011261081157600080fd5b81356108218482602086016107c2565b91505092915050565b60008135905061083981610ef7565b92915050565b60006020828403121561085157600080fd5b600061085f8482850161082a565b91505092915050565b6000806040838503121561087b57600080fd5b60006108898582860161082a565b925050602061089a8582860161082a565b9150509250929050565b6000806000606084860312156108b957600080fd5b60006108c78682870161082a565b93505060206108d88682870161082a565b925050604084013567ffffffffffffffff8111156108f557600080fd5b61090186828701610800565b9150509250925092565b61091481610c5c565b82525050565b600061092582610b2b565b61092f8185610b36565b935061093f818560208601610c81565b61094881610e1c565b840191505092915050565b6000610960601d83610b36565b915061096b82610e2d565b602082019050919050565b6000610983602283610b36565b915061098e82610e56565b604082019050919050565b60006109a6601e83610b36565b91506109b182610ea5565b602082019050919050565b60006109c9601983610b36565b91506109d482610ece565b602082019050919050565b6109e881610c68565b82525050565b60006080820190508181036000830152610a08818761091a565b9050610a1760208301866109df565b610a2460408301856109df565b610a31606083018461090b565b95945050505050565b60006020820190508181036000830152610a5381610953565b9050919050565b60006020820190508181036000830152610a7381610976565b9050919050565b60006020820190508181036000830152610a9381610999565b9050919050565b60006020820190508181036000830152610ab3816109bc565b9050919050565b6000602082019050610acf60008301846109df565b92915050565b6000610adf610af0565b9050610aeb8282610ce6565b919050565b6000604051905090565b600067ffffffffffffffff821115610b1557610b14610ded565b5b610b1e82610e1c565b9050602081019050919050565b600081519050919050565b600082825260208201905092915050565b6000610b5282610c68565b9150610b5d83610c68565b9250827fffffffffffffffffffffffffffffffffffffffffffffffffffffffffffffffff03821115610b9257610b91610d60565b5b828201905092915050565b6000610ba882610c68565b9150610bb383610c68565b925082610bc357610bc2610d8f565b5b828204905092915050565b6000610bd982610c68565b9150610be483610c68565b9250817fffffffffffffffffffffffffffffffffffffffffffffffffffffffffffffffff0483118215151615610c1d57610c1c610d60565b5b828202905092915050565b6000610c3382610c68565b9150610c3e83610c68565b925082821015610c5157610c50610d60565b5b828203905092915050565b60008115159050919050565b6000819050919050565b82818337600083830152505050565b60005b83811015610c9f578082015181840152602081019050610c84565b83811115610cae576000848401525b50505050565b60006002820490506001821680610ccc57607f821691505b60208210811415610ce057610cdf610dbe565b5b50919050565b610cef82610e1c565b810181811067ffffffffffffffff82111715610d0e57610d0d610ded565b5b80604052505050565b6000610d2282610c68565b91507fffffffffffffffffffffffffffffffffffffffffffffffffffffffffffffffff821415610d5557610d54610d60565b5b600182019050919050565b7f4e487b7100000000000000000000000000000000000000000000000000000000600052601160045260246000fd5b7f4e487b7100000000000000000000000000000000000000000000000000000000600052601260045260246000fd5b7f4e487b7100000000000000000000000000000000000000000000000000000000600052602260045260246000fd5b7f4e487b7100000000000000000000000000000000000000000000000000000000600052604160045260246000fd5b6000601f19601f8301169050919050565b7f4d7573742073656e6420736f6d652076616c7565206f66206574686572000000600082015250565b7f50726f6a65637420646561646c696e6520697320616c7265616479207061737360008201527f6564000000000000000000000000000000000000000000000000000000000000602082015250565b7f446561646c696e65206d75737420626520696e20746865206675747572650000600082015250565b7f50726f6a65637420697320616c72656164792066756e64656400000000000000600082015250565b610f0081610c68565b8114610f0b57600080fd5b5056fea26469706673582212204c8ab1e14b89030eab24042e9fc18a47067788e79d0d76ff236a386c38db487b64736f6c63430008040033",
  "linkReferences": {},
  "deployedLinkReferences": {}
}